{
  "address": "0x5FbDB2315678afecb367f032d93F642f64180aa3",
  "abi": [
    {
      "anonymous": false,
      "inputs": [
        {
          "indexed": false,
          "internalType": "address",
          "name": "owner",
          "type": "address"
        },
        {
          "indexed": false,
          "internalType": "uint256",
          "name": "cardID",
          "type": "uint256"
        }
      ],
      "name": "NewCard",
      "type": "event"
    },
    {
      "anonymous": false,
      "inputs": [
        {
          "indexed": false,
          "internalType": "address",
          "name": "from",
          "type": "address"
        },
        {
          "indexed": false,
          "internalType": "address",
          "name": "to",
          "type": "address"
        },
        {
          "indexed": false,
          "internalType": "uint256",
          "name": "tokenID",
          "type": "uint256"
        }
      ],
      "name": "Transfer",
      "type": "event"
    },
    {
      "inputs": [],
      "name": "MAX_CARDS",
      "outputs": [
        {
          "internalType": "uint64",
          "name": "",
          "type": "uint64"
        }
      ],
      "stateMutability": "view",
      "type": "function"
    },
    {
      "inputs": [
        {
          "internalType": "address",
          "name": "_owner",
          "type": "address"
        }
      ],
      "name": "balanceOf",
      "outputs": [
        {
          "internalType": "uint256",
          "name": "count",
          "type": "uint256"
        }
      ],
      "stateMutability": "view",
      "type": "function"
    },
    {
      "inputs": [
        {
          "internalType": "uint256",
          "name": "",
          "type": "uint256"
        }
      ],
      "name": "cardIdToOwner",
      "outputs": [
        {
          "internalType": "address",
          "name": "",
          "type": "address"
        }
      ],
      "stateMutability": "view",
      "type": "function"
    },
    {
      "inputs": [],
      "name": "createCard",
      "outputs": [
        {
          "internalType": "uint256",
          "name": "",
          "type": "uint256"
        }
      ],
      "stateMutability": "nonpayable",
      "type": "function"
    },
    {
      "inputs": [],
      "name": "greet",
      "outputs": [
        {
          "internalType": "string",
          "name": "",
          "type": "string"
        }
      ],
      "stateMutability": "view",
      "type": "function"
    },
    {
      "inputs": [],
      "name": "name",
      "outputs": [
        {
          "internalType": "string",
          "name": "",
          "type": "string"
        }
      ],
      "stateMutability": "view",
      "type": "function"
    },
    {
      "inputs": [
        {
          "internalType": "uint256",
          "name": "_tokenId",
          "type": "uint256"
        }
      ],
      "name": "ownerOf",
      "outputs": [
        {
          "internalType": "address",
          "name": "owner",
          "type": "address"
        }
      ],
      "stateMutability": "view",
      "type": "function"
    },
    {
      "inputs": [
        {
          "internalType": "address",
          "name": "",
          "type": "address"
        },
        {
          "internalType": "uint256",
          "name": "",
          "type": "uint256"
        }
      ],
      "name": "ownerToCardIds",
      "outputs": [
        {
          "internalType": "uint256",
          "name": "",
          "type": "uint256"
        }
      ],
      "stateMutability": "view",
      "type": "function"
    },
    {
      "inputs": [
        {
          "internalType": "uint256",
          "name": "cardID",
          "type": "uint256"
        }
      ],
      "name": "requireCardExists",
      "outputs": [],
      "stateMutability": "view",
      "type": "function"
    },
    {
      "inputs": [],
      "name": "symbol",
      "outputs": [
        {
          "internalType": "string",
          "name": "",
          "type": "string"
        }
      ],
      "stateMutability": "view",
      "type": "function"
    },
    {
      "inputs": [
        {
          "internalType": "uint256",
          "name": "tokenId",
          "type": "uint256"
        }
      ],
      "name": "tokenURI",
      "outputs": [
        {
          "internalType": "string",
          "name": "",
          "type": "string"
        }
      ],
      "stateMutability": "view",
      "type": "function"
    },
    {
      "inputs": [
        {
          "internalType": "address",
          "name": "_owner",
          "type": "address"
        }
      ],
      "name": "tokensOfOwner",
      "outputs": [
        {
          "internalType": "uint256[]",
          "name": "ownerTokens",
          "type": "uint256[]"
        }
      ],
      "stateMutability": "view",
      "type": "function"
    },
    {
      "inputs": [],
      "name": "totalSupply",
      "outputs": [
        {
          "internalType": "uint256",
          "name": "",
          "type": "uint256"
        }
      ],
      "stateMutability": "view",
      "type": "function"
    },
    {
      "inputs": [
        {
          "internalType": "address",
          "name": "_to",
          "type": "address"
        },
        {
          "internalType": "uint256",
          "name": "_cardId",
          "type": "uint256"
        }
      ],
      "name": "transfer",
      "outputs": [],
      "stateMutability": "nonpayable",
      "type": "function"
    }
  ],
  "transactionHash": "0x7269c75f2ce497b056ee73683acb52f6a3a86385fa9518c50e3e9535e4e4eaaa",
  "args": [],
  "solcInputHash": "b7ad2566042425d038224725c698cc2e",
  "bytecode": "0x608060405234801561001057600080fd5b50611bf3806100206000396000f3fe608060405234801561001057600080fd5b50600436106100ea5760003560e01c80637e744a761161008c578063a2d256fa11610066578063a2d256fa14610273578063a9059cbb14610291578063c87b56dd146102ad578063cfae3217146102dd576100ea565b80637e744a76146102075780638462151c1461022557806395d89b4114610255576100ea565b806341994140116100c857806341994140146101475780636352211e14610177578063683dd948146101a757806370a08231146101d7576100ea565b806306fdde03146100ef57806318160ddd1461010d578063302597201461012b575b600080fd5b6100f76102fb565b604051610104919061165a565b60405180910390f35b610115610334565b60405161012291906117fa565b60405180910390f35b6101456004803603810190610140919061131e565b610357565b005b610161600480360381019061015c919061131e565b6103a3565b60405161016e91906115bd565b60405180910390f35b610191600480360381019061018c919061131e565b6103d6565b60405161019e91906115bd565b60405180910390f35b6101c160048036038101906101bc91906112e2565b610501565b6040516101ce91906117fa565b60405180910390f35b6101f160048036038101906101ec91906112b9565b610532565b6040516101fe91906117fa565b60405180910390f35b61020f61057b565b60405161021c9190611815565b60405180910390f35b61023f600480360381019061023a91906112b9565b610581565b60405161024c9190611638565b60405180910390f35b61025d61077c565b60405161026a919061165a565b60405180910390f35b61027b6107b5565b60405161028891906117fa565b60405180910390f35b6102ab60048036038101906102a691906112e2565b61083a565b005b6102c760048036038101906102c2919061131e565b610971565b6040516102d4919061165a565b60405180910390f35b6102e56109f4565b6040516102f2919061165a565b60405180910390f35b6040518060400160405280600a81526020017f537175696443617264730000000000000000000000000000000000000000000081525081565b6000808054905061138867ffffffffffffffff1661035291906118a5565b905090565b61035f610334565b81106103a0576040517f08c379a00000000000000000000000000000000000000000000000000000000081526004016103979061173a565b60405180910390fd5b50565b60016020528060005260406000206000915054906101000a900473ffffffffffffffffffffffffffffffffffffffff1681565b60006104176040518060400160405280601481526020017f4c6f6f6b7570206f776e6572206f662049443a2000000000000000000000000081525083610a31565b6001600083815260200190815260200160002060009054906101000a900473ffffffffffffffffffffffffffffffffffffffff16905061048c6040518060400160405280600d81526020017f466f756e64206f776e65723a200000000000000000000000000000000000000081525082610acd565b600073ffffffffffffffffffffffffffffffffffffffff168173ffffffffffffffffffffffffffffffffffffffff1614156104fc576040517f08c379a00000000000000000000000000000000000000000000000000000000081526004016104f39061171a565b60405180910390fd5b919050565b6002602052816000526040600020818154811061051d57600080fd5b90600052602060002001600091509150505481565b6000600360008373ffffffffffffffffffffffffffffffffffffffff1673ffffffffffffffffffffffffffffffffffffffff168152602001908152602001600020549050919050565b61138881565b6060600061058e83610532565b9050600081141561061157600067ffffffffffffffff8111156105da577f4e487b7100000000000000000000000000000000000000000000000000000000600052604160045260246000fd5b6040519080825280602002602001820160405280156106085781602001602082028036833780820191505090505b50915050610777565b60008167ffffffffffffffff811115610653577f4e487b7100000000000000000000000000000000000000000000000000000000600052604160045260246000fd5b6040519080825280602002602001820160405280156106815781602001602082028036833780820191505090505b509050600061068e610334565b9050600080600190505b82811161076e578673ffffffffffffffffffffffffffffffffffffffff166001600083815260200190815260200160002060009054906101000a900473ffffffffffffffffffffffffffffffffffffffff1673ffffffffffffffffffffffffffffffffffffffff16141561075b5780848381518110610740577f4e487b7100000000000000000000000000000000000000000000000000000000600052603260045260246000fd5b6020026020010181815250508180610757906119b8565b9250505b8080610766906119b8565b915050610698565b83955050505050505b919050565b6040518060400160405280600381526020017f535144000000000000000000000000000000000000000000000000000000000081525081565b60003073ffffffffffffffffffffffffffffffffffffffff163373ffffffffffffffffffffffffffffffffffffffff161415610826576040517f08c379a000000000000000000000000000000000000000000000000000000000815260040161081d9061177a565b60405180910390fd5b600061083133610b69565b90508091505090565b600073ffffffffffffffffffffffffffffffffffffffff168273ffffffffffffffffffffffffffffffffffffffff1614156108aa576040517f08c379a00000000000000000000000000000000000000000000000000000000081526004016108a1906117da565b60405180910390fd5b3073ffffffffffffffffffffffffffffffffffffffff168273ffffffffffffffffffffffffffffffffffffffff161415610919576040517f08c379a00000000000000000000000000000000000000000000000000000000081526004016109109061177a565b60405180910390fd5b6109233382610e29565b610962576040517f08c379a00000000000000000000000000000000000000000000000000000000081526004016109599061179a565b60405180910390fd5b61096d338383610e95565b5050565b606061097c826110c2565b6109bb576040517f08c379a00000000000000000000000000000000000000000000000000000000081526004016109b2906117ba565b60405180910390fd5b600460008381526020019081526020016000206040516020016109de91906115a6565b6040516020818303038152906040529050919050565b60606040518060400160405280600581526020017f6772656574000000000000000000000000000000000000000000000000000000815250905090565b610ac98282604051602401610a479291906116ac565b6040516020818303038152906040527f9710a9d0000000000000000000000000000000000000000000000000000000007bffffffffffffffffffffffffffffffffffffffffffffffffffffffff19166020820180517bffffffffffffffffffffffffffffffffffffffffffffffffffffffff838183161783525050505061112e565b5050565b610b658282604051602401610ae392919061167c565b6040516020818303038152906040527f319af333000000000000000000000000000000000000000000000000000000007bffffffffffffffffffffffffffffffffffffffffffffffffffffffff19166020820180517bffffffffffffffffffffffffffffffffffffffffffffffffffffffff838183161783525050505061112e565b5050565b6000610baa6040518060400160405280601781526020017f437265617465206f776e6572206164647265737320257300000000000000000081525083610acd565b600060405180608001604052804267ffffffffffffffff1681526020018473ffffffffffffffffffffffffffffffffffffffff16815260200160006fffffffffffffffffffffffffffffffff168152602001600073ffffffffffffffffffffffffffffffffffffffff168152509050600081908060018154018082558091505060019003906000526020600020906003020160009091909190915060008201518160000160006101000a81548167ffffffffffffffff021916908367ffffffffffffffff16021790555060208201518160000160086101000a81548173ffffffffffffffffffffffffffffffffffffffff021916908373ffffffffffffffffffffffffffffffffffffffff16021790555060408201518160010160006101000a8154816fffffffffffffffffffffffffffffffff02191690836fffffffffffffffffffffffffffffffff16021790555060608201518160020160006101000a81548173ffffffffffffffffffffffffffffffffffffffff021916908373ffffffffffffffffffffffffffffffffffffffff1602179055505050600080805490509050610d8b6040518060400160405280600d81526020017f4e657720436172642049443a200000000000000000000000000000000000000081525082610a31565b61138867ffffffffffffffff16811115610dda576040517f08c379a0000000000000000000000000000000000000000000000000000000008152600401610dd19061175a565b60405180910390fd5b7f4d4994fce1fc97907839df40bf13e7694f3bcd0436419c16fe0b54251b7f7c788482604051610e0b92919061160f565b60405180910390a1610e1f60008583610e95565b8092505050919050565b60008273ffffffffffffffffffffffffffffffffffffffff166001600084815260200190815260200160002060009054906101000a900473ffffffffffffffffffffffffffffffffffffffff1673ffffffffffffffffffffffffffffffffffffffff1614905092915050565b610ed36040518060400160405280600e81526020017f5374617274207472616e73666572000000000000000000000000000000000000815250611157565b600360008373ffffffffffffffffffffffffffffffffffffffff1673ffffffffffffffffffffffffffffffffffffffff1681526020019081526020016000206000815480929190610f23906119b8565b9190505550610f686040518060400160405280601281526020017f41737369676e20494420256420746f202573000000000000000000000000000081525082846111f0565b816001600083815260200190815260200160002060006101000a81548173ffffffffffffffffffffffffffffffffffffffff021916908373ffffffffffffffffffffffffffffffffffffffff160217905550600073ffffffffffffffffffffffffffffffffffffffff168373ffffffffffffffffffffffffffffffffffffffff161461104457600360008473ffffffffffffffffffffffffffffffffffffffff1673ffffffffffffffffffffffffffffffffffffffff168152602001908152602001600020600081548092919061103e9061195c565b91905055505b6110826040518060400160405280600d81526020017f456d6974207472616e7366657200000000000000000000000000000000000000815250611157565b7fddf252ad1be2c89b69c2b068fc378daa952ba7f163c4a11628f55a4df523b3ef8383836040516110b5939291906115d8565b60405180910390a1505050565b60008073ffffffffffffffffffffffffffffffffffffffff166001600084815260200190815260200160002060009054906101000a900473ffffffffffffffffffffffffffffffffffffffff1673ffffffffffffffffffffffffffffffffffffffff1614159050919050565b60008151905060006a636f6e736f6c652e6c6f679050602083016000808483855afa5050505050565b6111ed8160405160240161116b919061165a565b6040516020818303038152906040527f41304fac000000000000000000000000000000000000000000000000000000007bffffffffffffffffffffffffffffffffffffffffffffffffffffffff19166020820180517bffffffffffffffffffffffffffffffffffffffffffffffffffffffff838183161783525050505061112e565b50565b61128a838383604051602401611208939291906116dc565b6040516020818303038152906040527fe3849f79000000000000000000000000000000000000000000000000000000007bffffffffffffffffffffffffffffffffffffffffffffffffffffffff19166020820180517bffffffffffffffffffffffffffffffffffffffffffffffffffffffff838183161783525050505061112e565b505050565b60008135905061129e81611b8f565b92915050565b6000813590506112b381611ba6565b92915050565b6000602082840312156112cb57600080fd5b60006112d98482850161128f565b91505092915050565b600080604083850312156112f557600080fd5b60006113038582860161128f565b9250506020611314858286016112a4565b9150509250929050565b60006020828403121561133057600080fd5b600061133e848285016112a4565b91505092915050565b60006113538383611579565b60208301905092915050565b611368816118d9565b82525050565b600061137982611855565b6113838185611878565b935061138e83611830565b8060005b838110156113bf5781516113a68882611347565b97506113b18361186b565b925050600181019050611392565b5085935050505092915050565b60006113d782611860565b6113e18185611889565b93506113f1818560208601611929565b6113fa81611a5f565b840191505092915050565b6000815461141281611986565b61141c818661189a565b9450600182166000811461143757600181146114485761147b565b60ff1983168652818601935061147b565b61145185611840565b60005b8381101561147357815481890152600182019150602081019050611454565b838801955050505b50505092915050565b6000611491601d83611889565b915061149c82611a70565b602082019050919050565b60006114b4601583611889565b91506114bf82611a99565b602082019050919050565b60006114d7601883611889565b91506114e282611ac2565b602082019050919050565b60006114fa601a83611889565b915061150582611aeb565b602082019050919050565b600061151d601783611889565b915061152882611b14565b602082019050919050565b6000611540601f83611889565b915061154b82611b3d565b602082019050919050565b6000611563601a83611889565b915061156e82611b66565b602082019050919050565b6115828161190b565b82525050565b6115918161190b565b82525050565b6115a081611915565b82525050565b60006115b28284611405565b915081905092915050565b60006020820190506115d2600083018461135f565b92915050565b60006060820190506115ed600083018661135f565b6115fa602083018561135f565b6116076040830184611588565b949350505050565b6000604082019050611624600083018561135f565b6116316020830184611588565b9392505050565b60006020820190508181036000830152611652818461136e565b905092915050565b6000602082019050818103600083015261167481846113cc565b905092915050565b6000604082019050818103600083015261169681856113cc565b90506116a5602083018461135f565b9392505050565b600060408201905081810360008301526116c681856113cc565b90506116d56020830184611588565b9392505050565b600060608201905081810360008301526116f681866113cc565b90506117056020830185611588565b611712604083018461135f565b949350505050565b6000602082019050818103600083015261173381611484565b9050919050565b60006020820190508181036000830152611753816114a7565b9050919050565b60006020820190508181036000830152611773816114ca565b9050919050565b60006020820190508181036000830152611793816114ed565b9050919050565b600060208201905081810360008301526117b381611510565b9050919050565b600060208201905081810360008301526117d381611533565b9050919050565b600060208201905081810360008301526117f381611556565b9050919050565b600060208201905061180f6000830184611588565b92915050565b600060208201905061182a6000830184611597565b92915050565b6000819050602082019050919050565b60008190508160005260206000209050919050565b600081519050919050565b600081519050919050565b6000602082019050919050565b600082825260208201905092915050565b600082825260208201905092915050565b600081905092915050565b60006118b08261190b565b91506118bb8361190b565b9250828210156118ce576118cd611a01565b5b828203905092915050565b60006118e4826118eb565b9050919050565b600073ffffffffffffffffffffffffffffffffffffffff82169050919050565b6000819050919050565b600067ffffffffffffffff82169050919050565b60005b8381101561194757808201518184015260208101905061192c565b83811115611956576000848401525b50505050565b60006119678261190b565b9150600082141561197b5761197a611a01565b5b600182039050919050565b6000600282049050600182168061199e57607f821691505b602082108114156119b2576119b1611a30565b5b50919050565b60006119c38261190b565b91507fffffffffffffffffffffffffffffffffffffffffffffffffffffffffffffffff8214156119f6576119f5611a01565b5b600182019050919050565b7f4e487b7100000000000000000000000000000000000000000000000000000000600052601160045260246000fd5b7f4e487b7100000000000000000000000000000000000000000000000000000000600052602260045260246000fd5b6000601f19601f8301169050919050565b7f4f776e6572206d75737420686176652076616c69642061646472657373000000600082015250565b7f436172644944206578636565647320737570706c790000000000000000000000600082015250565b7f45786365656473206d696e74696e672063617061636974790000000000000000600082015250565b7f43616e2774207472616e7366657220746f20636f6e7472616374000000000000600082015250565b7f4f6e6c79206f776e65722063616e207472616e73666572000000000000000000600082015250565b7f546f6b656e4944206e6f7420666f756e6420666f722055524920717565727900600082015250565b7f5472616e7366657272696e6720746f206e6f2061646472657373000000000000600082015250565b611b98816118d9565b8114611ba357600080fd5b50565b611baf8161190b565b8114611bba57600080fd5b5056fea2646970667358221220d6f7cd2f47cf0ec16c4f751d39df8a4d4e2e9dc9c4ff75c28876093eecce7ce564736f6c63430008040033",
  "devdoc": {
    "kind": "dev",
    "methods": {},
    "version": 1
  },
  "userdoc": {
    "kind": "user",
    "methods": {},
    "version": 1
  },
  "storageLayout": {
    "storage": [
      {
        "astId": 15,
        "contract": "contracts/PlayerCard.sol:PlayerCard",
        "label": "cards",
        "offset": 0,
        "slot": "0",
        "type": "t_array(t_struct(PlayerCard)11_storage)dyn_storage"
      },
      {
        "astId": 22,
        "contract": "contracts/PlayerCard.sol:PlayerCard",
        "label": "cardIdToOwner",
        "offset": 0,
        "slot": "1",
        "type": "t_mapping(t_uint256,t_address)"
      },
      {
        "astId": 27,
        "contract": "contracts/PlayerCard.sol:PlayerCard",
        "label": "ownerToCardIds",
        "offset": 0,
        "slot": "2",
        "type": "t_mapping(t_address,t_array(t_uint256)dyn_storage)"
      },
      {
        "astId": 31,
        "contract": "contracts/PlayerCard.sol:PlayerCard",
        "label": "ownerToCardCount",
        "offset": 0,
        "slot": "3",
        "type": "t_mapping(t_address,t_uint256)"
      },
      {
        "astId": 250,
        "contract": "contracts/PlayerCard.sol:PlayerCard",
        "label": "tokenURIs",
        "offset": 0,
        "slot": "4",
        "type": "t_mapping(t_uint256,t_string_storage)"
      }
    ],
    "types": {
      "t_address": {
        "encoding": "inplace",
        "label": "address",
        "numberOfBytes": "20"
      },
      "t_array(t_struct(PlayerCard)11_storage)dyn_storage": {
        "base": "t_struct(PlayerCard)11_storage",
        "encoding": "dynamic_array",
        "label": "struct CardBase.PlayerCard[]",
        "numberOfBytes": "32"
      },
      "t_array(t_uint256)dyn_storage": {
        "base": "t_uint256",
        "encoding": "dynamic_array",
        "label": "uint256[]",
        "numberOfBytes": "32"
      },
      "t_mapping(t_address,t_array(t_uint256)dyn_storage)": {
        "encoding": "mapping",
        "key": "t_address",
        "label": "mapping(address => uint256[])",
        "numberOfBytes": "32",
        "value": "t_array(t_uint256)dyn_storage"
      },
      "t_mapping(t_address,t_uint256)": {
        "encoding": "mapping",
        "key": "t_address",
        "label": "mapping(address => uint256)",
        "numberOfBytes": "32",
        "value": "t_uint256"
      },
      "t_mapping(t_uint256,t_address)": {
        "encoding": "mapping",
        "key": "t_uint256",
        "label": "mapping(uint256 => address)",
        "numberOfBytes": "32",
        "value": "t_address"
      },
      "t_mapping(t_uint256,t_string_storage)": {
        "encoding": "mapping",
        "key": "t_uint256",
        "label": "mapping(uint256 => string)",
        "numberOfBytes": "32",
        "value": "t_string_storage"
      },
      "t_string_storage": {
        "encoding": "bytes",
        "label": "string",
        "numberOfBytes": "32"
      },
      "t_struct(PlayerCard)11_storage": {
        "encoding": "inplace",
        "label": "struct CardBase.PlayerCard",
        "members": [
          {
            "astId": 4,
            "contract": "contracts/PlayerCard.sol:PlayerCard",
            "label": "creationTime",
            "offset": 0,
            "slot": "0",
            "type": "t_uint64"
          },
          {
            "astId": 6,
            "contract": "contracts/PlayerCard.sol:PlayerCard",
            "label": "currentAddress",
            "offset": 8,
            "slot": "0",
            "type": "t_address"
          },
          {
            "astId": 8,
            "contract": "contracts/PlayerCard.sol:PlayerCard",
            "label": "currentWinCount",
            "offset": 0,
            "slot": "1",
            "type": "t_uint128"
          },
          {
            "astId": 10,
            "contract": "contracts/PlayerCard.sol:PlayerCard",
            "label": "nextAddress",
            "offset": 0,
            "slot": "2",
            "type": "t_address"
          }
        ],
        "numberOfBytes": "96"
      },
      "t_uint128": {
        "encoding": "inplace",
        "label": "uint128",
        "numberOfBytes": "16"
      },
      "t_uint256": {
        "encoding": "inplace",
        "label": "uint256",
        "numberOfBytes": "32"
      },
      "t_uint64": {
        "encoding": "inplace",
        "label": "uint64",
        "numberOfBytes": "8"
      }
    }
  }
}