{
  "address": "0x5FbDB2315678afecb367f032d93F642f64180aa3",
  "abi": [
    {
      "anonymous": false,
      "inputs": [
        {
          "indexed": true,
          "internalType": "address",
          "name": "owner",
          "type": "address"
        },
        {
          "indexed": false,
          "internalType": "uint256",
          "name": "cardID",
          "type": "uint256"
        }
      ],
      "name": "NewCard",
      "type": "event"
    },
    {
      "anonymous": false,
      "inputs": [
        {
          "indexed": true,
          "internalType": "address",
          "name": "from",
          "type": "address"
        },
        {
          "indexed": true,
          "internalType": "address",
          "name": "to",
          "type": "address"
        },
        {
          "indexed": false,
          "internalType": "uint256",
          "name": "tokenID",
          "type": "uint256"
        }
      ],
      "name": "Transfer",
      "type": "event"
    },
    {
      "inputs": [],
      "name": "MAX_CARDS",
      "outputs": [
        {
          "internalType": "uint64",
          "name": "",
          "type": "uint64"
        }
      ],
      "stateMutability": "view",
      "type": "function"
    },
    {
      "inputs": [
        {
          "internalType": "address",
          "name": "_owner",
          "type": "address"
        }
      ],
      "name": "balanceOf",
      "outputs": [
        {
          "internalType": "uint256",
          "name": "count",
          "type": "uint256"
        }
      ],
      "stateMutability": "view",
      "type": "function"
    },
    {
      "inputs": [
        {
          "internalType": "uint256",
          "name": "",
          "type": "uint256"
        }
      ],
      "name": "cardIdToOwner",
      "outputs": [
        {
          "internalType": "address",
          "name": "",
          "type": "address"
        }
      ],
      "stateMutability": "view",
      "type": "function"
    },
    {
      "inputs": [],
      "name": "createCard",
      "outputs": [
        {
          "internalType": "uint256",
          "name": "",
          "type": "uint256"
        }
      ],
      "stateMutability": "nonpayable",
      "type": "function"
    },
    {
      "inputs": [],
      "name": "greet",
      "outputs": [
        {
          "internalType": "string",
          "name": "",
          "type": "string"
        }
      ],
      "stateMutability": "view",
      "type": "function"
    },
    {
      "inputs": [],
      "name": "name",
      "outputs": [
        {
          "internalType": "string",
          "name": "",
          "type": "string"
        }
      ],
      "stateMutability": "view",
      "type": "function"
    },
    {
      "inputs": [
        {
          "internalType": "uint256",
          "name": "_tokenId",
          "type": "uint256"
        }
      ],
      "name": "ownerOf",
      "outputs": [
        {
          "internalType": "address",
          "name": "owner",
          "type": "address"
        }
      ],
      "stateMutability": "view",
      "type": "function"
    },
    {
      "inputs": [
        {
          "internalType": "address",
          "name": "",
          "type": "address"
        },
        {
          "internalType": "uint256",
          "name": "",
          "type": "uint256"
        }
      ],
      "name": "ownerToCardIds",
      "outputs": [
        {
          "internalType": "uint256",
          "name": "",
          "type": "uint256"
        }
      ],
      "stateMutability": "view",
      "type": "function"
    },
    {
      "inputs": [
        {
          "internalType": "uint256",
          "name": "cardID",
          "type": "uint256"
        }
      ],
      "name": "requireCardExists",
      "outputs": [],
      "stateMutability": "view",
      "type": "function"
    },
    {
      "inputs": [],
      "name": "symbol",
      "outputs": [
        {
          "internalType": "string",
          "name": "",
          "type": "string"
        }
      ],
      "stateMutability": "view",
      "type": "function"
    },
    {
      "inputs": [
        {
          "internalType": "uint256",
          "name": "tokenId",
          "type": "uint256"
        }
      ],
      "name": "tokenURI",
      "outputs": [
        {
          "internalType": "string",
          "name": "",
          "type": "string"
        }
      ],
      "stateMutability": "view",
      "type": "function"
    },
    {
      "inputs": [
        {
          "internalType": "address",
          "name": "_owner",
          "type": "address"
        }
      ],
      "name": "tokensOfOwner",
      "outputs": [
        {
          "internalType": "uint256[]",
          "name": "ownerTokens",
          "type": "uint256[]"
        }
      ],
      "stateMutability": "view",
      "type": "function"
    },
    {
      "inputs": [],
      "name": "totalSupply",
      "outputs": [
        {
          "internalType": "uint256",
          "name": "",
          "type": "uint256"
        }
      ],
      "stateMutability": "view",
      "type": "function"
    },
    {
      "inputs": [
        {
          "internalType": "address",
          "name": "_to",
          "type": "address"
        },
        {
          "internalType": "uint256",
          "name": "_cardId",
          "type": "uint256"
        }
      ],
      "name": "transfer",
      "outputs": [],
      "stateMutability": "nonpayable",
      "type": "function"
    }
  ],
  "transactionHash": "0x50fe824f1901cdff241395d204f0c14343554e8812be57aeaa63d7474ae7bf72",
  "args": [],
  "solcInputHash": "9b34eda65fd38d8328ab2e28a93ef289",
  "bytecode": "0x608060405234801561001057600080fd5b50611bd2806100206000396000f3fe608060405234801561001057600080fd5b50600436106100ea5760003560e01c80637e744a761161008c578063a2d256fa11610066578063a2d256fa14610273578063a9059cbb14610291578063c87b56dd146102ad578063cfae3217146102dd576100ea565b80637e744a76146102075780638462151c1461022557806395d89b4114610255576100ea565b806341994140116100c857806341994140146101475780636352211e14610177578063683dd948146101a757806370a08231146101d7576100ea565b806306fdde03146100ef57806318160ddd1461010d578063302597201461012b575b600080fd5b6100f76102fb565b6040516101049190611639565b60405180910390f35b610115610334565b60405161012291906117d9565b60405180910390f35b6101456004803603810190610140919061135d565b610357565b005b610161600480360381019061015c919061135d565b6103a3565b60405161016e91906115fc565b60405180910390f35b610191600480360381019061018c919061135d565b6103d6565b60405161019e91906115fc565b60405180910390f35b6101c160048036038101906101bc9190611321565b610501565b6040516101ce91906117d9565b60405180910390f35b6101f160048036038101906101ec91906112f8565b610532565b6040516101fe91906117d9565b60405180910390f35b61020f61057b565b60405161021c91906117f4565b60405180910390f35b61023f600480360381019061023a91906112f8565b610581565b60405161024c9190611617565b60405180910390f35b61025d61077c565b60405161026a9190611639565b60405180910390f35b61027b6107b5565b60405161028891906117d9565b60405180910390f35b6102ab60048036038101906102a69190611321565b61083a565b005b6102c760048036038101906102c2919061135d565b610971565b6040516102d49190611639565b60405180910390f35b6102e56109f4565b6040516102f29190611639565b60405180910390f35b6040518060400160405280600a81526020017f537175696443617264730000000000000000000000000000000000000000000081525081565b6000808054905061138867ffffffffffffffff166103529190611884565b905090565b61035f610334565b81106103a0576040517f08c379a000000000000000000000000000000000000000000000000000000000815260040161039790611719565b60405180910390fd5b50565b60016020528060005260406000206000915054906101000a900473ffffffffffffffffffffffffffffffffffffffff1681565b60006104176040518060400160405280601481526020017f4c6f6f6b7570206f776e6572206f662049443a2000000000000000000000000081525083610a31565b6001600083815260200190815260200160002060009054906101000a900473ffffffffffffffffffffffffffffffffffffffff16905061048c6040518060400160405280600d81526020017f466f756e64206f776e65723a200000000000000000000000000000000000000081525082610acd565b600073ffffffffffffffffffffffffffffffffffffffff168173ffffffffffffffffffffffffffffffffffffffff1614156104fc576040517f08c379a00000000000000000000000000000000000000000000000000000000081526004016104f3906116f9565b60405180910390fd5b919050565b6002602052816000526040600020818154811061051d57600080fd5b90600052602060002001600091509150505481565b6000600360008373ffffffffffffffffffffffffffffffffffffffff1673ffffffffffffffffffffffffffffffffffffffff168152602001908152602001600020549050919050565b61138881565b6060600061058e83610532565b9050600081141561061157600067ffffffffffffffff8111156105da577f4e487b7100000000000000000000000000000000000000000000000000000000600052604160045260246000fd5b6040519080825280602002602001820160405280156106085781602001602082028036833780820191505090505b50915050610777565b60008167ffffffffffffffff811115610653577f4e487b7100000000000000000000000000000000000000000000000000000000600052604160045260246000fd5b6040519080825280602002602001820160405280156106815781602001602082028036833780820191505090505b509050600061068e610334565b9050600080600190505b82811161076e578673ffffffffffffffffffffffffffffffffffffffff166001600083815260200190815260200160002060009054906101000a900473ffffffffffffffffffffffffffffffffffffffff1673ffffffffffffffffffffffffffffffffffffffff16141561075b5780848381518110610740577f4e487b7100000000000000000000000000000000000000000000000000000000600052603260045260246000fd5b602002602001018181525050818061075790611997565b9250505b808061076690611997565b915050610698565b83955050505050505b919050565b6040518060400160405280600381526020017f535144000000000000000000000000000000000000000000000000000000000081525081565b60003073ffffffffffffffffffffffffffffffffffffffff163373ffffffffffffffffffffffffffffffffffffffff161415610826576040517f08c379a000000000000000000000000000000000000000000000000000000000815260040161081d90611759565b60405180910390fd5b600061083133610b69565b90508091505090565b600073ffffffffffffffffffffffffffffffffffffffff168273ffffffffffffffffffffffffffffffffffffffff1614156108aa576040517f08c379a00000000000000000000000000000000000000000000000000000000081526004016108a1906117b9565b60405180910390fd5b3073ffffffffffffffffffffffffffffffffffffffff168273ffffffffffffffffffffffffffffffffffffffff161415610919576040517f08c379a000000000000000000000000000000000000000000000000000000000815260040161091090611759565b60405180910390fd5b6109233382610e3e565b610962576040517f08c379a000000000000000000000000000000000000000000000000000000000815260040161095990611779565b60405180910390fd5b61096d338383610eaa565b5050565b606061097c82611101565b6109bb576040517f08c379a00000000000000000000000000000000000000000000000000000000081526004016109b290611799565b60405180910390fd5b600460008381526020019081526020016000206040516020016109de91906115e5565b6040516020818303038152906040529050919050565b60606040518060400160405280600581526020017f6772656574000000000000000000000000000000000000000000000000000000815250905090565b610ac98282604051602401610a4792919061168b565b6040516020818303038152906040527f9710a9d0000000000000000000000000000000000000000000000000000000007bffffffffffffffffffffffffffffffffffffffffffffffffffffffff19166020820180517bffffffffffffffffffffffffffffffffffffffffffffffffffffffff838183161783525050505061116d565b5050565b610b658282604051602401610ae392919061165b565b6040516020818303038152906040527f319af333000000000000000000000000000000000000000000000000000000007bffffffffffffffffffffffffffffffffffffffffffffffffffffffff19166020820180517bffffffffffffffffffffffffffffffffffffffffffffffffffffffff838183161783525050505061116d565b5050565b6000610baa6040518060400160405280601781526020017f437265617465206f776e6572206164647265737320257300000000000000000081525083610acd565b600060405180608001604052804267ffffffffffffffff1681526020018473ffffffffffffffffffffffffffffffffffffffff16815260200160006fffffffffffffffffffffffffffffffff168152602001600073ffffffffffffffffffffffffffffffffffffffff168152509050600081908060018154018082558091505060019003906000526020600020906003020160009091909190915060008201518160000160006101000a81548167ffffffffffffffff021916908367ffffffffffffffff16021790555060208201518160000160086101000a81548173ffffffffffffffffffffffffffffffffffffffff021916908373ffffffffffffffffffffffffffffffffffffffff16021790555060408201518160010160006101000a8154816fffffffffffffffffffffffffffffffff02191690836fffffffffffffffffffffffffffffffff16021790555060608201518160020160006101000a81548173ffffffffffffffffffffffffffffffffffffffff021916908373ffffffffffffffffffffffffffffffffffffffff1602179055505050600080805490509050610d8b6040518060400160405280600d81526020017f4e657720436172642049443a200000000000000000000000000000000000000081525082610a31565b61138867ffffffffffffffff16811115610dda576040517f08c379a0000000000000000000000000000000000000000000000000000000008152600401610dd190611739565b60405180910390fd5b8373ffffffffffffffffffffffffffffffffffffffff167f4d4994fce1fc97907839df40bf13e7694f3bcd0436419c16fe0b54251b7f7c7882604051610e2091906117d9565b60405180910390a2610e3460008583610eaa565b8092505050919050565b60008273ffffffffffffffffffffffffffffffffffffffff166001600084815260200190815260200160002060009054906101000a900473ffffffffffffffffffffffffffffffffffffffff1673ffffffffffffffffffffffffffffffffffffffff1614905092915050565b610ee86040518060400160405280600e81526020017f5374617274207472616e73666572000000000000000000000000000000000000815250611196565b600360008373ffffffffffffffffffffffffffffffffffffffff1673ffffffffffffffffffffffffffffffffffffffff1681526020019081526020016000206000815480929190610f3890611997565b9190505550610f7d6040518060400160405280601281526020017f41737369676e20494420256420746f2025730000000000000000000000000000815250828461122f565b816001600083815260200190815260200160002060006101000a81548173ffffffffffffffffffffffffffffffffffffffff021916908373ffffffffffffffffffffffffffffffffffffffff160217905550600073ffffffffffffffffffffffffffffffffffffffff168373ffffffffffffffffffffffffffffffffffffffff161461105957600360008473ffffffffffffffffffffffffffffffffffffffff1673ffffffffffffffffffffffffffffffffffffffff16815260200190815260200160002060008154809291906110539061193b565b91905055505b6110976040518060400160405280600d81526020017f456d6974207472616e7366657200000000000000000000000000000000000000815250611196565b8173ffffffffffffffffffffffffffffffffffffffff168373ffffffffffffffffffffffffffffffffffffffff167fddf252ad1be2c89b69c2b068fc378daa952ba7f163c4a11628f55a4df523b3ef836040516110f491906117d9565b60405180910390a3505050565b60008073ffffffffffffffffffffffffffffffffffffffff166001600084815260200190815260200160002060009054906101000a900473ffffffffffffffffffffffffffffffffffffffff1673ffffffffffffffffffffffffffffffffffffffff1614159050919050565b60008151905060006a636f6e736f6c652e6c6f679050602083016000808483855afa5050505050565b61122c816040516024016111aa9190611639565b6040516020818303038152906040527f41304fac000000000000000000000000000000000000000000000000000000007bffffffffffffffffffffffffffffffffffffffffffffffffffffffff19166020820180517bffffffffffffffffffffffffffffffffffffffffffffffffffffffff838183161783525050505061116d565b50565b6112c9838383604051602401611247939291906116bb565b6040516020818303038152906040527fe3849f79000000000000000000000000000000000000000000000000000000007bffffffffffffffffffffffffffffffffffffffffffffffffffffffff19166020820180517bffffffffffffffffffffffffffffffffffffffffffffffffffffffff838183161783525050505061116d565b505050565b6000813590506112dd81611b6e565b92915050565b6000813590506112f281611b85565b92915050565b60006020828403121561130a57600080fd5b6000611318848285016112ce565b91505092915050565b6000806040838503121561133457600080fd5b6000611342858286016112ce565b9250506020611353858286016112e3565b9150509250929050565b60006020828403121561136f57600080fd5b600061137d848285016112e3565b91505092915050565b600061139283836115b8565b60208301905092915050565b6113a7816118b8565b82525050565b60006113b882611834565b6113c28185611857565b93506113cd8361180f565b8060005b838110156113fe5781516113e58882611386565b97506113f08361184a565b9250506001810190506113d1565b5085935050505092915050565b60006114168261183f565b6114208185611868565b9350611430818560208601611908565b61143981611a3e565b840191505092915050565b6000815461145181611965565b61145b8186611879565b945060018216600081146114765760018114611487576114ba565b60ff198316865281860193506114ba565b6114908561181f565b60005b838110156114b257815481890152600182019150602081019050611493565b838801955050505b50505092915050565b60006114d0601d83611868565b91506114db82611a4f565b602082019050919050565b60006114f3601583611868565b91506114fe82611a78565b602082019050919050565b6000611516601883611868565b915061152182611aa1565b602082019050919050565b6000611539601a83611868565b915061154482611aca565b602082019050919050565b600061155c601783611868565b915061156782611af3565b602082019050919050565b600061157f601f83611868565b915061158a82611b1c565b602082019050919050565b60006115a2601a83611868565b91506115ad82611b45565b602082019050919050565b6115c1816118ea565b82525050565b6115d0816118ea565b82525050565b6115df816118f4565b82525050565b60006115f18284611444565b915081905092915050565b6000602082019050611611600083018461139e565b92915050565b6000602082019050818103600083015261163181846113ad565b905092915050565b60006020820190508181036000830152611653818461140b565b905092915050565b60006040820190508181036000830152611675818561140b565b9050611684602083018461139e565b9392505050565b600060408201905081810360008301526116a5818561140b565b90506116b460208301846115c7565b9392505050565b600060608201905081810360008301526116d5818661140b565b90506116e460208301856115c7565b6116f1604083018461139e565b949350505050565b60006020820190508181036000830152611712816114c3565b9050919050565b60006020820190508181036000830152611732816114e6565b9050919050565b6000602082019050818103600083015261175281611509565b9050919050565b600060208201905081810360008301526117728161152c565b9050919050565b600060208201905081810360008301526117928161154f565b9050919050565b600060208201905081810360008301526117b281611572565b9050919050565b600060208201905081810360008301526117d281611595565b9050919050565b60006020820190506117ee60008301846115c7565b92915050565b600060208201905061180960008301846115d6565b92915050565b6000819050602082019050919050565b60008190508160005260206000209050919050565b600081519050919050565b600081519050919050565b6000602082019050919050565b600082825260208201905092915050565b600082825260208201905092915050565b600081905092915050565b600061188f826118ea565b915061189a836118ea565b9250828210156118ad576118ac6119e0565b5b828203905092915050565b60006118c3826118ca565b9050919050565b600073ffffffffffffffffffffffffffffffffffffffff82169050919050565b6000819050919050565b600067ffffffffffffffff82169050919050565b60005b8381101561192657808201518184015260208101905061190b565b83811115611935576000848401525b50505050565b6000611946826118ea565b9150600082141561195a576119596119e0565b5b600182039050919050565b6000600282049050600182168061197d57607f821691505b6020821081141561199157611990611a0f565b5b50919050565b60006119a2826118ea565b91507fffffffffffffffffffffffffffffffffffffffffffffffffffffffffffffffff8214156119d5576119d46119e0565b5b600182019050919050565b7f4e487b7100000000000000000000000000000000000000000000000000000000600052601160045260246000fd5b7f4e487b7100000000000000000000000000000000000000000000000000000000600052602260045260246000fd5b6000601f19601f8301169050919050565b7f4f776e6572206d75737420686176652076616c69642061646472657373000000600082015250565b7f436172644944206578636565647320737570706c790000000000000000000000600082015250565b7f45786365656473206d696e74696e672063617061636974790000000000000000600082015250565b7f43616e2774207472616e7366657220746f20636f6e7472616374000000000000600082015250565b7f4f6e6c79206f776e65722063616e207472616e73666572000000000000000000600082015250565b7f546f6b656e4944206e6f7420666f756e6420666f722055524920717565727900600082015250565b7f5472616e7366657272696e6720746f206e6f2061646472657373000000000000600082015250565b611b77816118b8565b8114611b8257600080fd5b50565b611b8e816118ea565b8114611b9957600080fd5b5056fea264697066735822122014648df98a03de915615d80a007c3f2a712610921f3d808157fcd7af34f080f064736f6c63430008040033",
  "devdoc": {
    "kind": "dev",
    "methods": {},
    "version": 1
  },
  "userdoc": {
    "kind": "user",
    "methods": {},
    "version": 1
  },
  "storageLayout": {
    "storage": [
      {
        "astId": 15,
        "contract": "contracts/PlayerCard.sol:PlayerCard",
        "label": "cards",
        "offset": 0,
        "slot": "0",
        "type": "t_array(t_struct(PlayerCard)11_storage)dyn_storage"
      },
      {
        "astId": 22,
        "contract": "contracts/PlayerCard.sol:PlayerCard",
        "label": "cardIdToOwner",
        "offset": 0,
        "slot": "1",
        "type": "t_mapping(t_uint256,t_address)"
      },
      {
        "astId": 27,
        "contract": "contracts/PlayerCard.sol:PlayerCard",
        "label": "ownerToCardIds",
        "offset": 0,
        "slot": "2",
        "type": "t_mapping(t_address,t_array(t_uint256)dyn_storage)"
      },
      {
        "astId": 31,
        "contract": "contracts/PlayerCard.sol:PlayerCard",
        "label": "ownerToCardCount",
        "offset": 0,
        "slot": "3",
        "type": "t_mapping(t_address,t_uint256)"
      },
      {
        "astId": 250,
        "contract": "contracts/PlayerCard.sol:PlayerCard",
        "label": "tokenURIs",
        "offset": 0,
        "slot": "4",
        "type": "t_mapping(t_uint256,t_string_storage)"
      }
    ],
    "types": {
      "t_address": {
        "encoding": "inplace",
        "label": "address",
        "numberOfBytes": "20"
      },
      "t_array(t_struct(PlayerCard)11_storage)dyn_storage": {
        "base": "t_struct(PlayerCard)11_storage",
        "encoding": "dynamic_array",
        "label": "struct CardBase.PlayerCard[]",
        "numberOfBytes": "32"
      },
      "t_array(t_uint256)dyn_storage": {
        "base": "t_uint256",
        "encoding": "dynamic_array",
        "label": "uint256[]",
        "numberOfBytes": "32"
      },
      "t_mapping(t_address,t_array(t_uint256)dyn_storage)": {
        "encoding": "mapping",
        "key": "t_address",
        "label": "mapping(address => uint256[])",
        "numberOfBytes": "32",
        "value": "t_array(t_uint256)dyn_storage"
      },
      "t_mapping(t_address,t_uint256)": {
        "encoding": "mapping",
        "key": "t_address",
        "label": "mapping(address => uint256)",
        "numberOfBytes": "32",
        "value": "t_uint256"
      },
      "t_mapping(t_uint256,t_address)": {
        "encoding": "mapping",
        "key": "t_uint256",
        "label": "mapping(uint256 => address)",
        "numberOfBytes": "32",
        "value": "t_address"
      },
      "t_mapping(t_uint256,t_string_storage)": {
        "encoding": "mapping",
        "key": "t_uint256",
        "label": "mapping(uint256 => string)",
        "numberOfBytes": "32",
        "value": "t_string_storage"
      },
      "t_string_storage": {
        "encoding": "bytes",
        "label": "string",
        "numberOfBytes": "32"
      },
      "t_struct(PlayerCard)11_storage": {
        "encoding": "inplace",
        "label": "struct CardBase.PlayerCard",
        "members": [
          {
            "astId": 4,
            "contract": "contracts/PlayerCard.sol:PlayerCard",
            "label": "creationTime",
            "offset": 0,
            "slot": "0",
            "type": "t_uint64"
          },
          {
            "astId": 6,
            "contract": "contracts/PlayerCard.sol:PlayerCard",
            "label": "currentAddress",
            "offset": 8,
            "slot": "0",
            "type": "t_address"
          },
          {
            "astId": 8,
            "contract": "contracts/PlayerCard.sol:PlayerCard",
            "label": "currentWinCount",
            "offset": 0,
            "slot": "1",
            "type": "t_uint128"
          },
          {
            "astId": 10,
            "contract": "contracts/PlayerCard.sol:PlayerCard",
            "label": "nextAddress",
            "offset": 0,
            "slot": "2",
            "type": "t_address"
          }
        ],
        "numberOfBytes": "96"
      },
      "t_uint128": {
        "encoding": "inplace",
        "label": "uint128",
        "numberOfBytes": "16"
      },
      "t_uint256": {
        "encoding": "inplace",
        "label": "uint256",
        "numberOfBytes": "32"
      },
      "t_uint64": {
        "encoding": "inplace",
        "label": "uint64",
        "numberOfBytes": "8"
      }
    }
  }
}